:1000000000800020BD01000039080000F107000059
:10001000F1070000F1070000F1070000F107000000
:10002000F1070000F1070000F107000039080000A7
:1000300039080000F1070000F91A0000FD1A00005D
:1000400039080000390800003908000039080000AC
:10005000390800003908000039080000390800009C
:10006000390800003908000039080000390800008C
:10007000390800003908000039080000390800007C
:10008000390800003908000039080000390800006C
:10009000390800003908000039080000390800005C
:1000A000390800003908000039080000390800004C
:1000B000390800003908000039080000390800003C
:1000C000390800003908000039080000390800002C
:1000D000390800003908000039080000390800001C
:1000E000390800003908000039080000390800000C
:1000F00039080000390800003908000039080000FC
:1001000039080000390800003908000039080000EB
:1001100039080000390800003908000039080000DB
:1001200039080000390800003908000039080000CB
:1001300039080000390800003908000039080000BB
:1001400039080000390800003908000039080000AB
:10015000390800003908000039080000390800009B
:1001600039080000D10B00003908000039080000F0
:10017000390800003908000039080000390800007B
:10018000390800003908000039080000390800006B
:10019000390800003908000039080000390800005B
:1001A000390800003908000039080000390800004B
:1001B000390800003908000039080000564B4CF29D
:1001C000205210B51A804DF628121A8000BF00BFC9
:1001D00000F036FB514B4FF010621A60504A9A60A3
:1001E000504ADA60504A136813F4807304D14F49BF
:1001F0000B604FF4A85313604D4B1A78110703D5C9
:100200001A7842F008021A704A4B4B492A221A7097
:100210004A4A4B4B8B4204D252F8040F43F8040B6A
:10022000F8E7484B484900228B4202D243F8042B9E
:10023000FAE74649464A002352F8230041F82300D2
:1002400001336F2BF8D1434B434A802103F8011B44
:100250009342FBD1414B3D4A1A60414B8A221A70AE
:10026000A3F5805324225A70A0221A709A7992071B
:10027000FCD59A79D406FCD43A4A937903F00C035E
:10028000082B384BF9D103221A7140225A719A79FE
:100290009006FCD5334A9179324B4906FBD5324A58
:1002A000324911600221516020221A709A7902F0BD
:1002B0000C020C2AFAD12E4B2E4A1A602E4B2F4AD2
:1002C0001A6000225A60072243F8042C2C4AC3F813
:1002D0000C2D62B600F032FB144B1B68DA0705D513
:1002E000284800F0CBFA284B284A1A60284B1B7884
:1002F0005B0609D5244C254B22689A4204D121483B
:1003000000F0BCFA0023236001F05AFD00F09EFAD1
:1003100001F054FCFEE700BF0E2005403080044091
:10032000823F04000100002B10D0034014D0034092
:1003300002D0074000E007402490FF1FDC270000A8
:100340002087FF1F2490FF1FBC91FF1F0082FF1F0B
:100350000000000000E400E05FE400E008ED00E0E1
:100360000050064000400640448004400000030165
:1003700004800440C010050014E000E0FF76010096
:1003800000002020512A56611CE00340A5C3945A66
:1003900000F00740FFFFFFFFFFFFFFFFFFFFFFFF32
:1003A000FFFFFFFFFFFFFFFFFFFFFFFFFFFFFFFF5D
:1003B000FFFFFFFFFFFFFFFFFFFFFFFFFFFFFFFF4D
:1003C000FFFFFFFFFFFFFFFFFFFFFFFFFFFFFFFF3D
:1003D000FFFFFFFFFFFFFFFFFFFFFFFFFFFFFFFF2D
:1003E000FFFFFFFFFFFFFFFFFFFFFFFFFFFFFFFF1D
:1003F000FFFFFFFFFFFFFFFFFFFFFFFFFFFFFFFF0D
:10040000FFFFFFFFFFFFFFFFFFFFFFFFDEF9FFFF23
:1004100010B5054C237833B9044B13B10448AFF33E
:1004200000800123237010BD2490FF1F00000000F6
:10043000E0270000084B10B51BB108490848AFF38E
:1004400000800848036803B910BD074B002BFBD0A0
:10045000BDE81040184700BF000000002890FF1FB3
:10046000E02700002490FF1F0000000030B4084A7D
:100470000849094D094C1378002BFCD00B78DB0799
:10048000F9D52B6820681B1A0E2BF4D930BC7047A5
:100490003091FF1F4891FF1F4C90FF1FB491FF1F29
:1004A00010B5092000F026F9074C084A034601461A
:1004B0002046136001F07AFB204601F027FB642000
:1004C000BDE8104000F0ECB92C87FF1F4090FF1FE3
:1004D000374A384913681B06FCD40B6813F08003B5
:1004E000F8D172B634490A78002A5FD0334A3448CA
:1004F000F0B4344C176806682568D4680C303E4464
:10050000143200681268304F35442C4420440244B1
:10051000C2F34E022D4E2E482E4D2F4C42F4004277
:100520003A60376806682D682C4A24680C303E44CF
:10053000006812682A4F35442C4420440244C2F318
:100540004E02284E2848294D294C42F400423A6078
:10055000376806682D68274A24680C303E440068D6
:100560001268254F35442C4420440244C2F34E0205
:10057000224E2348234D244C42F400423A6037680F
:1005800006682D68214A24680C303E4400681268D1
:1005900035442C4420440244C2F34E021C4842F429
:1005A000004202600B7062B6F0BC704762B67047E2
:1005B00024B0034024B00B404590FF1F38B00340E7
:1005C0003CB0034040B003402CB0034058B003405F
:1005D0005CB0034060B0034064B003406CB00340C3
:1005E00030B0034038B00B403CB00B4040B00B4043
:1005F00044B00B404CB00B402CB00B4058B00B40FB
:100600005CB00B4060B00B4064B00B406CB00B4072
:1006100030B00B4030B42948294A2A4B2A4D602477
:10062000E121047011701B78284C082B30D00A2B64
:100630002748284937D00C2B0CBF35223D221223E6
:100640002A60236002600B60234B24491B78244AF4
:10065000BBB101230B601360224B23491B78234A53
:10066000012B26D9042B0FD9082B1ED9102B94BF90
:10067000862387230B6013601D4B01221A7030BC48
:1006800070470B601360E7E784230B601360F3E7A8
:1006900000F58E200F490830012213232A602360C1
:1006A00002600B60D0E73922F7E785230B60136007
:1006B000E2E780230B601360DEE700BF00400740E5
:1006C000014007402087FF1F08B003400CB00340E3
:1006D00008B00B400CB00B404890FF1F20B0034007
:1006E00020B00B402187FF1F24B0034024B00B40F3
:1006F0004590FF1F28282FD8334B2DE9F0411E5C71
:10070000FF2E2BD0314B1B78002B2AD132062CD454
:1007100072B62F4D2F4C2F46012326602B7062B6E8
:1007200072B623681B060CD43B781BB9F4E72B7810
:10073000002BF1D062B601F05DFA72B6236818069C
:10074000F5D5254B1B6800222A7062B6234A107823
:1007500043FA00F0BDE8F081002070470020BDE8BA
:10076000F081FFF7B5FE3206D2D572B61C4DDFF828
:100770007C801C4C06F04007FFB206F03F06D8F81C
:100780000030DFB123F01003C8F8003001232660E9
:10079000134A2B7062B672B6236819060CD413780C
:1007A0001BB9ECE72B78002BE9D062B601F022FAF6
:1007B00072B623681B06F5D50B4BC3E743F0100355
:1007C000C8F80030E2E700BF142700004590FF1F83
:1007D0004790FF1F00B0034010B003404490FF1F3C
:1007E0004690FF1F00B00B4010B00B400CB00B4008
:1007F00008B5104C08E0236859050DD423681A0584
:100800000FD42368DB0411D423685803F3D500F018
:10081000DFF923685905F1D500F00EF823681A05B1
:10082000EFD500F009F82368DB04EDD500F004F8FB
:10083000EAE700BF3480044008B5FFF7D9FF00BFE6
:10084000014B10221A80704700200540704700BFFE
:10085000094908B50B6830B16A461844A2F58052C0
:10086000904202D20860184608BD01F0A3FA0C239A
:1008700003604FF0FF3008BD2487FF1F30B4054BE5
:10088000054D064C002210211A602A602060196074
:1008900030BC704714D0034004D0034000D0034064
:1008A0002DE9F843054672B6204F214B214A1B68BB
:1008B0003C68126862B6520102D5322B88BF0134FF
:1008C00095B3C3F5BB331C4EDFF86490DFF864804A
:1008D000FF334FF47A72A6FB031302FB04F404EB1C
:1008E000931472B6D9F800103A68D8F800E062B6EE
:1008F000C1F5BB33FF33A6FB03031EF0806FC4EBCF
:1009000093134FF47A7002D0322988BF013200FB72
:100910000233B3F57A7F04D3013D05D004F57A7430
:10092000DFE701F067F9DCE7BDE8F8834C90FF1FD3
:1009300018E000E004ED00E0ABAAAAAAF8B52D4B40
:100940002D49DFF8D0E0DFF8D0C02C4E2C4D2D4CD7
:100950002D4A2E4F4FF4000018604FF08070186041
:100960004FF0007018604FF0806018604FF000602A
:1009700018600020086028234BF6FF71CCF80010A7
:10098000CEF80030336013602B6023603B60B362AD
:100990009362092245F8242CC4F8D80F05F57F6529
:1009A000C7F8D41F07F5FF2707F5FA67C6F8F83F21
:1009B0002B6006F5FF26C4F8D42F05F5FD2504F5B8
:1009C000FF24386006F2F4761148316005F5FF65C2
:1009D00004F5FD642B6023600260FFF71BFE192005
:1009E000FFF75EFF00F05AFE40F21310BDE8F8403A
:1009F000FFF756BF08E100E0048003401480034085
:100A0000248003402C8003401C800340348003403A
:100A100000800B400C80034008800340431E032BE2
:100A200014D872B60A4951F8230068B170B4094C61
:100A3000058834F81320466841F82360521B24F8D7
:100A4000132062B670BC704762B6704700207047D2
:100A5000A890FF1FA491FF1F013803280BD872B67E
:100A6000074B53F8203043B100205B680130002B66
:100A7000FBD162B67047002070471846F9E700BF07
:100A8000FC90FF1F30B472B62B4A13781D0706D5B1
:100A90002A4B196A002936D0996A002941D0537827
:100AA0001C0706D5254B196C00293ED0996C0029EE
:100AB00039D09378190705D5204B196E002936D007
:100AC000996E89B1D3781B0707D51C4BD3F88020CA
:100AD0007AB3D3F8882011213AB162B6184B0022BC
:100AE0001A7030BC00F056BE0D21154C154D227801
:100AF00043F8315003EBC1030830013A58602270CB
:100B000062B630BC704704220D4C0F4D217843F87B
:100B1000325003EBC20308304A1E5860227062B69E
:100B2000EFE70521E1E70921DFE70822ECE70C22E6
:100B3000EAE71022E8E700BF6C2700000080FF1FF3
:100B40002591FF1FC800400088004000431E032B72
:100B50001DD81B4A400140F0100030B4104472B65A
:100B6000184CE25C032A1BD8DFE802F002121517CA
:100B700003220D88E25410F0080F14BFC823882305
:100B800043EA054308310360416062B630BC7047F8
:100B900008300222EDE70522EBE708300422E8E7FF
:100BA000094A52F8230038B1084A52F8230041603C
:100BB00042F8231062B6E9E742F82310034AF7E748
:100BC0000080FF1F3491FF1FFC90FF1F0C91FF1F3F
:100BD0002DE9F04FDFF818B3DFF818A387B044E031
:100BE000AE4F4FEA930807EBC809013ED9F804203D
:100BF00003F00803F6B2A2F1080003F0FF04002B93
:100C000040F0048157F838301B0C99B222F8081CC8
:100C1000002B00F0F280A24B22F8064C42F8044C64
:100C200053F82620002A00F06E819E4D55F826309C
:100C300058609D4C45F8260034F81630194424F8C5
:100C4000161000F087FD002800F05681974A984B57
:100C500019F0080F00F1080018BF1346C9F8040086
:100C600047F8383008238BF800309BF80040E4B296
:100C700061071BD58F4B1B78ABB18F490A7802F007
:100C8000FF032AB1013BDBB20B70002B00F0EF84B5
:100C90008A490A7802F0FF032AB1013BDBB20B70EC
:100CA000002B00F0F78004238BF8003004F00803D9
:100CB00003F0FF02002B00F0D6809AF80030DBB280
:100CC0001E098DD19C08DFF8D49159F8342009EB26
:100CD000C401C2F38302013A49680C2A7ED8DFE8D6
:100CE00002F081817D7D7D7D7D7D477D7D7D07005D
:100CF0000868734D4A68734F734E286081B240F2A2
:100D000081606A4B6A604FF0010E0022814249F80F
:100D100034303A60C9F81020C9F8182086F800E08D
:100D20005E4C00F2F480B1F5D06F80F07883B1F5BD
:100D3000817F00F0628300F28782802900F0EC82DC
:100D4000822940F01E83A98801F07F01042900F266
:100D500018835E485E4C89000844227062700278F5
:100D6000930740F1798384F800E04FF0020ED8E257
:100D7000544F3A6842B3574B534E5749188834780A
:100D80000D784028864645F0020828BF4FF0400EF7
:100D9000002C84F001043470CEEB00000CBF8824DA
:100DA000C82409EBC80680B285F0010544EA0E4468
:100DB0007260188049F8384072440D7018B9BEF15D
:100DC000400F18BF00223A603D4B1A88B2F5A06F61
:100DD00004D100219A785970404B1A70404A01237F
:100DE00013703FE7364A158842F22100854200F031
:100DF000FF812E4A49F83420F0E72C4A2C4B19F099
:100E0000080F18BF134647F838302BE700F0C2FC34
:100E1000344A354952F82630002B00F0B681586824
:100E20008C5D42F8260003F10802C9F80420032C67
:100E300005D8DFE804F0120F150204228A551A883B
:100E400019F0080F0CBF8823C82343EA024347F870
:100E5000383007E702228A55F1E703228A55EEE788
:100E600005228A55EBE7E00700F11A82210600F11E
:100E70004982A20706D51D4A1D4913780220DBB21C
:100E800013700870E30602D5194B10221A7007B0D0
:100E9000BDE8F08F00F0EAFD05E700BF0080FF1F0E
:100EA000A890FF1F5490FF1FA491FF1FC80040008F
:100EB000880040003091FF1FB990FF1F3891FF1F3D
:100EC0001C91FF1F5090FF1FB890FF1FC0200740CC
:100ED0002891FF1F6490FF1F2491FF1F9820074057
:100EE00094200740FC90FF1F3491FF1F882007408B
:100EF0008020074090200740AB4A47F8380013781D
:100F000001331370AEE643F82600A84D91E642F295
:100F10002100814200F0358100F2AF81B1F5086F08
:100F200000F01B82B1F5106F40F02B82226AA049BD
:100F3000A8780870120600F14583D9F828209D4949
:100F4000130600F13A83D9F830209A49150600F1CA
:100F50002F83D9F838209749140600F12483D9F853
:100F600040209449100600F11983D9F8482091498E
:100F7000120600F10E83D9F850208E49130600F1B5
:100F80000383D9F858208B49150600F1F882D9F867
:100F900060208849140600F12983D9F86820854922
:100FA000100600F11E83D9F870208249120600F164
:100FB0001383D9F878207F49130600F10883D9F804
:100FC00080207C49150600F11C83D9F888207949D6
:100FD000140600F11083D9F890207649100600F12C
:100FE000C882D9F898207349120600F1BC82724871
:100FF000724A7349019073486C4D734C04970023F7
:1010000005960295804617460E461D46039438689D
:1010100028B1446800F0BEFB2046002CF9D1002323
:101020003B60029B30681A46002342F8253028B105
:10103000446800F0AFFB2046002CF9D1002232605A
:10104000019A98F800301146002241F8042B039AC7
:101050000191023B4FF0000122F81510032B09D833
:10106000DFE813F04B0104004B0104004FF00103D3
:1010700088F800300135042D07F1040706F1040655
:1010800008F10108C3D1514C514B2278464D049FC1
:10109000059E002129701A70130700F14F826278B3
:1010A0004C49DFF810810A7010074FF00001C9F8B1
:1010B0003010C9F8381000F12B824749A2780A7025
:1010C0000021C9F85010C9F858101107DFF8E48062
:1010D00000F1DC81E2784149364C0A7000211207A8
:1010E000C9F87010C9F8781000F1B981337801930C
:1010F000002183F00102C9F89010C9F8981000206F
:10110000029080468446044635490D7845F0020E2B
:1011100009EBCE030393019B002B039B5C600CBF88
:101120008824C82444EA080385F0010449F83E30C5
:1011300032700C70DFF87CE02A4BDFF8A4800028C6
:1011400040F02681BCF1400F1BD144F0020C09EBAA
:10115000CC03029CDFF85CE05C60002A40F02E814A
:10116000020442F088029DF804304EF83C2004440A
:1011700033700D702346402803D100201A4A3B608B
:1011800010801A4A0123137028E68B5D032B00F2AE
:101190002D8101A252F823F0650C0000650C0000BF
:1011A000EF120000F51200002591FF1F5490FF1F61
:1011B0003091FF1F0080FF1F0C91FF1FA890FF1FA1
:1011C000FC90FF1F3491FF1FA491FF1F6C270000AC
:1011D000C4200740C8200740CC200740D02007404B
:1011E0002491FF1FB890FF1F6490FF1F94200740B9
:1011F000928892B9B14A0D784878157050708D7800
:10120000C8789570D07010680D79157186284D7961
:1012100089795571917100F0A580A949A94E0A7884
:10122000307882F00105002842F002020D700CBFF8
:101230008821C82149F8321009EBC20280F0010070
:10124000002130705160D4E540F20232914240F00A
:101250008D80A98801F07F01042900F292806A88BC
:10126000002A40F08E809848CDF804E089000844B8
:10127000017841F00201017041E742F221208142F0
:101280007BD1A988002940F0E480904B904A914896
:10129000AC781D681560CDF804E00A4604702EE7AE
:1012A0008D4B8E4886491A614FF0020E80F800E09F
:1012B000854F0A708A49196099608A4E8A4D8B4C15
:1012C0009A610D213970FF213170DFF840E22970F9
:1012D0002270874D874A8EF800109F27012406F858
:1012E000047C5D600470DA6007B0BDE8F08F002315
:1012F0008B55B7E401238B55B4E44FF0000388F815
:101300000030B7E67049784B80220D2008701A70C3
:10131000A2077FF5B7ADAEE5774C4FF0020E227015
:101320006270EA88724580F0A38165490D78402A91
:10133000944645F0020E28BF4FF0400C04EB0C031E
:1013400009EBCE000293012344604FEA0C48CCEB3A
:10135000020001930022C824E4E6684A664C127831
:101360002270DEE7664A0F21117056E7B1F5A06FD3
:1013700007D1012300220193C1E642F221329142BA
:10138000F7D0514A0F231370544A0123137025E5F7
:1013900040287FF6DAAE44F002040EEBC401029E50
:1013A0004E60BAB19DF80410564A19703346403861
:1013B00088F8005040334EF83420DFE69DF80430C2
:1013C00033700204029B0D7042F0C80203444EF8D1
:1013D0003C20D0E69DF804101970029B404A88F822
:1013E0000050403840334EF83420C7E619F0080F5B
:1013F0000CBF022303238B5534E4A98801F07F013D
:101400000429BED86A88002ABBD12F48CDF804E051
:1014100089000844017821F0020101706FE63A4A20
:101420005468002CADD06888B5F804E003E00C32B5
:101430005468002CA5D013888342F8D15388734593
:10144000F5D1000A03280CBF94F800E0B2F808E0D8
:1014500067E7CDF804E052E64FF0020E61E700F0D6
:1014600079F9002800F0F18008301D4AC4F88400A2
:10147000C4F8802000F06EF9002800F0E080083009
:10148000204AC9F88C00C9F888202FE600F062F9DC
:10149000002800F0E6800830114AC8F86400C8F857
:1014A000602000F057F9002800F0D5800830154A78
:1014B000C9F86C00C9F868200CE600BFAC91FF1FAA
:1014C0002491FF1FB890FF1FC02007404C90FF1FC2
:1014D000B491FF1F4891FF1F0080FF1F9420074019
:1014E000880040008820074080200740982007405F
:1014F0006890FF1FBC90FF1F2891FF1F3091FF1FB6
:10150000B990FF1FC8004000702700008C200740E2
:1015100000F020F9002800F08C8008305D4AC8F8FF
:101520004400C8F8402000F015F900287BD00830AE
:10153000594AC9F84C00C9F84820BEE500F00AF93C
:1015400000286AD00830534AC9F82400C9F820207E
:1015500000F000F900285AD008304F4AC9F82C0092
:10156000C9F828209BE5D1F89C00083800F012F952
:101570003DE5D1F89400083800F00CF931E5C86D6C
:10158000083800F007F902E5486D083800F002F964
:10159000F7E4C86C083800F0FDF8ECE4486C083853
:1015A00000F0F8F8E1E4C86B083800F0F3F8D6E48E
:1015B000486B083800F0EEF8CBE4C86A083800F051
:1015C000E9F8C0E4606A083800F0E4F8B5E4C86FF0
:1015D000083800F0DFF8F2E4486F083800F0DAF875
:1015E000E7E4C86E083800F0D5F8DCE4486E083847
:1015F00000F0D0F8D1E4D1F88C00083800F0CAF837
:10160000E9E4D1F88400083800F0C4F8DDE42A7871
:10161000C9F8280001322A7041E52A78C9F820006B
:1016200001322A7094E72A78C9F8480001322A70FA
:1016300043E52A78C8F8400001322A7073E72A7817
:10164000C9F8880001322A7050E52A78C4F8800071
:1016500001322A700EE72A78C9F8680001322A7030
:1016600038E52A78C8F8600001322A7019E700BE10
:10167000BEF1400FF44628BF4FF0400C04EB0C03C2
:1016800002930123CCEB0E004FEA0C480022019399
:101690003AE500BF88004000C80040002DE9F8434B
:1016A000204C00F043FB002204F1A00023461A6006
:1016B0005A60083383424FF00001F8D11A4A1B4F99
:1016C00013681B4D1B481C4EDFF87880DFF878C08C
:1016D000DFF87890DFF878E043F480231360C4F3F8
:1016E00007233B70C4F307432B70240EFF2302F53E
:1016F00028320470114D88F8003011488CF8003001
:10170000D4323370012389F8003070268EF800102F
:101710004FF40074102107F8183C2E70046011700B
:10172000BDE8F8830080FF1F348004409C20074000
:10173000B0200740B42007401020074049E400E0F3
:1017400008E100E0802007408820074094200740FF
:101750000021074072B60D480268B2FA82F30B2BE3
:1017600010DC4FF00041D94022EA0102026062B66B
:10177000074803EBC303DB00C2180021C150104629
:101780005160704762B60020704700BF2887FF1F76
:10179000BC83FF1F0D4B0E4AC31AA2FB03231B0978
:1017A0000B2B0CD80B4A127852B972B60A484FF07C
:1017B0000041026821FA03F31A43026062B67047DF
:1017C000064A1278002AF0D0FFF75CB9BC83FF1FED
:1017D000398EE3382591FF1F2887FF1F3091FF1FA7
:1017E00038B50F4D286878B143880288C118013395
:1017F00093420C7A02D24380204638BDFFF7CAFFDD
:10180000002320462B6038BD064B1B782BB10320EC
:10181000FFF704F928600028E6D14FF0FF3038BD0B
:101820004491FF1F3091FF1F10B5094C206818B17B
:1018300043881844007A10BD064B1B782BB1032057
:10184000FFF7ECF820600028F2D14FF0FF3010BD18
:101850004491FF1F3091FF1F044B054A1B6890887D
:101860001BB11A885B88D31A184470474491FF1F34
:10187000A491FF1F0B4B1B789BB110B50A4C20683D
:1018800048B1FFF787FF002303202360FFF7C6F866
:1018900030B1FFF77FFF0320FFF7C0F80028F8D131
:1018A00010BD70473091FF1F4491FF1F2DE9F04F8D
:1018B000DFF8F89083B0012289F80020019169B324
:1018C000DFF8EC80364F019E8346D8F80000B0B3B5
:1018D000344D4488C4F14001B14228BF314604EB85
:1018E000010E00221FFA8EFE2A70761AA0F802E07E
:1018F00000F1080251B1013C224459441BF8014B4C
:1019000002F8014F8B45F9D1B0F802E0BEF13F0F6C
:101910000BD8254A05211170002ED6D1019800233D
:1019200089F8003003B0BDE8F08F40220280014604
:101930000420FFF70BF90022C8F80020E9E73A7805
:101940002AB3184D4AF2F9244FF0010A07E0013C8E
:1019500016D02A78A2B900F04DF93A78BAB104202D
:10196000FFF77AF80728F2D889F800A0FFF7F2FE0F
:10197000C8F800000028ACD10C4B013C1870E8D12D
:1019800001234FF0FF302B7003B0BDE8F08F002330
:101990004FF0FF3089F8003003B0BDE8F08F00BF92
:1019A0003091FF1F4091FF1F3891FF1F3991FF1F9A
:1019B0003C91FF1F00B583B002AB012103F8010D7C
:1019C0001846FFF773FF03B05DF804FB38B50E4D02
:1019D0000E4C28680123237028B14088002323700F
:1019E000C0F1400038BD0A4B1B7813B900202070AD
:1019F00038BD0420FFF730F80728F7D8FFF7AAFE14
:101A000028600028E9D1F1E73C91FF1F3991FF1FC1
:101A10003091FF1FF8B5114B1B788BB1104E114D53
:101A2000346801272F7064B10F4A6388002717704C
:101A3000214623800420FFF789F8376000232B70AC
:101A4000F8BDFFF787FE084B28B1014604201C7043
:101A5000FFF77CF8F2E71F70F0E700BF3091FF1F3F
:101A60003C91FF1F3991FF1F3891FF1F38B50E4B76
:101A70001B7873B90D4C216861B103F0FF054B88E9
:101A80000B800420FFF762F8256038BD084B012267
:101A90001A7038BDFFF75EFE0028F7D00146BDE89A
:101AA00038400420FFF752B83991FF1F3C91FF1FC7
:101AB0003891FF1F70B5EFF3108272B60C4C20689E
:101AC00080B10C4E00254369236073B19D6102B95A
:101AD00062B6457783689847EFF3108272B6206844
:101AE0000028F0D102B962B670BD3360EFE700BFE5
:101AF0004C91FF1F5091FF1FFFF7DCBF024A136894
:101B000001331360704700BF4C90FF1F00B5064AB9
:101B1000036812885B6883B001A9ADF80420022233
:101B2000984703B05DF804FB40270000F0B5074676
:101B30008BB0002A33D0012A08BF0A2251B32124D6
:101B400000E0F4B2B1FBF2F502FB1511C8B20929AD
:101B500000F1300198BFC8B20AA988BF37302144CC
:101B600088BFC0B201F8240C661E2946002DE8D1BA
:101B700033B1013CE4B20AAB23442D2203F8242CF8
:101B80003B6801AA11195B683846C4F122029847E4
:101B90000BB0F0BD30228DF825202124E8E7036842
:101BA000C9B21B6898470BB0F0BD00BF0029BABF8F
:101BB00049422D2300230A22FFF7B8BF08B5FEF7DC
:101BC00055FCFEF76DFC00F015F8FAE7FFF752BE82
:101BD000FFF72ABEFFF704BEFFF73EBEFFF71ABFAE
:101BE000FFF7F4BE08461146FFF760BE0846FFF750
:101BF000E1BE00BF2DE9F843314E337893B1314F48
:101C00003A787AB90122D9073A7036D49A0719D4AA
:101C100000225B073A7005D52B4B1A6812B1EFF31F
:101C200005820AB1BDE8F883EFF3108172B6186837
:101C300018B1264C2278002A2ED00029F2D162B6A3
:101C4000BDE8F883DFF8908098F80020002ADFD004
:101C5000DFF88890002405E0013498F80030E4B201
:101C6000A34212D959F824502B6828461B6998477B
:101C70000028F1D02B699847EEE7FFF7EDFDC8B9D2
:101C8000134B1B781BB93378C0E73378C0E7337840
:101C900003F0FE033370B9E745691D60012323702B
:101CA0005DB1AA6101B962B600254577836898479E
:101CB0002570B7E700F07CF8E2E7064B1D60F1E71E
:101CC0003C87FF1F5D91FF1F5891FF1F5C91FF1F15
:101CD000E287FF1F5491FF1F6C91FF1F6091FF1F50
:101CE000F0B44D1E2E46002400E00134B0FBF2F3A8
:101CF00002FB1300092800F130078ABF3730F8B221
:101D0000C0B206F8010F1846002BEED10A19537025
:101D10004CB1107815F8016F28700133E01A834236
:101D200002F80169F5DB0846F0BC704770B584B075
:101D300072B6194B194D1A48702241260F24802182
:101D40001A702E701A460470197013781B06FCD591
:101D5000144B186862B6144B144C984298BF00EBB1
:101D6000800001A998BF40000A22FFF7B9FF01A92E
:101D70002046002311F8012B01333AB10A2B20F839
:101D8000022FF7D11623237004B070BD5B00DBB2C5
:101D9000237004B070BD00BF000002400700024085
:101DA00006000240080002407F969800CC87FF1F83
:101DB000704700BF014B1868704700BF108CFF1FB1
:101DC00070B50F4E0F4D761BB61018BF002405D00E
:101DD000013455F8043B9847A642F9D10A4E0B4D01
:101DE000761B00F0F1FCB61018BF002406D00134B9
:101DF00055F8043B9847A642F9D170BD70BD00BFAD
:101E0000D4270000D4270000DC270000D4270000DE
:101E1000024B0146186800F003B800BF108CFF1F8A
:101E20002DE9F04F01F10B05162D83B0064640F267
:101E30009F8035F0070500F1BF80A94200F2BC8009
:101E400000F0A6FAB5F5FC7FC0F09C826B0A00F0AA
:101E5000BA80042B00F28381A80900F1390E4FEA01
:101E60004E033830C44F07EB8303A3F108015C68CD
:101E7000A14207D1ACE0002A80F2AC80E468A14224
:101E800000F0A680636823F003035A1B0F2AF2DDDB
:101E9000B9493C6901F1080E744500F0B3816368EB
:101EA00023F003035A1B0F2A00F39981002AC1F87B
:101EB00014E0C1F810E080F29E80B3F5007F80F05E
:101EC0006781DB0803F1010C01229B1002FA03F386
:101ED0004A6851F83C80C4F8088001EBCC091A43E9
:101EE000A9F10803E3604A6041F83C40C8F80C409F
:101EF000831001249C40944200F28A80144206D14F
:101F000020F003006400144200F10400FAD007EB53
:101F1000C009CC468046DCF80C108C4507D173E133
:101F2000002A80F28181C9688C4500F06D814B6880
:101F300023F003035A1B0F2AF2DD0C46D1F80CC024
:101F400054F8088F4B1945F001054D6042F001012E
:101F5000C8F80CC03046CCF808807B613B61C3F800
:101F60000CE0C3F808E059609A5000F013FA1FE043
:101F7000102921D800F00CFA1025062302207E4FEC
:101F800007EB8303A3F108025C68944200F04581EB
:101F90006368E168A56823F00303234430465A6868
:101FA000E96042F001028D605A6000F0F3F90834F4
:101FB000204603B0BDE8F08F00240C232046336098
:101FC00003B0BDE8F08F80234FF0400E3F2049E77B
:101FD00070465DE72344E1685A68A56842F0010253
:101FE000E96030468D605A6000F0D4F9083420462C
:101FF00003B0BDE8F08F234430465A6842F0010236
:102000005A6000F0C7F90834204603B0BDE8F08FED
:10201000BC68636823F00308A84504D3C5EB080334
:102020000F2B00F38C80554BDFF860911A68D9F8BC
:10203000003001332A4404EB080A00F0608102F505
:1020400080520F3222F47F6222F00F021146304696
:10205000019200F0A1F9B0F1FF3F8346019A00F030
:102060005881824500F2FC80454B1968DA451144DD
:10207000196000F05381D9F80000DFF810E1013059
:102080001BBFCAEB0B0A5144CEF800B019601BF01D
:10209000070100F01781C1F10800C1F580518344A8
:1020A00008315A44C2F30B02C2EB010949463046DB
:1020B000019300F071F9431C019B00F03F81CBEBD1
:1020C00000024A4442F001021968C7F808B04944C6
:1020D000BC42CBF804201960DFF8A49016D0B8F108
:1020E0000F0F40F2FD806268A8F10C0323F0070394
:1020F000E01802F001024FF0050E1A430F2B626048
:10210000C0F804E0C0F808E000F21C811D4BBC6878
:102110001A68914288BF19601B4B1A689142626825
:1021200088BF196022F003029542A2EB050301D893
:102130000F2B04DC304600F02DF9002438E762193B
:1021400043F0010345F0010565603046BA60536015
:1021500000F020F90834204603B0BDE8F08F142BBE
:1021600071D9542B00F2A480280B00F16F0E4FEAB6
:102170004E036E3076E600BF148CFF1F7891FF1F70
:102180007C91FF1F7491FF1F7091FF1F2090FF1F14
:102190005A0A042A5ED9142A00F2B38002F15C01C3
:1021A00049005B3207EB810C57F82110DFF8DC8126
:1021B000ACF1080C8C4500F088804A6822F00302DC
:1021C000934202D289688C45F7D1D1F80CC07A6865
:1021D000C4F80CC0A160CCF80840CC6088E6631954
:1021E00042F0010745F00105656030464B610B6127
:1021F000C3F80CE0C3F808E05F609A50083400F0C0
:10220000C9F8D5E64A6873E608F1010818F0030F2B
:102210000CF1080C7FF47FAE30E0DC68A34208BF0D
:1022200002303FF435AEB3E60B440C465A68C96839
:1022300054F8085F42F001025A603046E9608D6050
:1022400000F0A8F8B4E603F15C0E03F15B004FEA7E
:102250004E0307E69A0902F1390149003832A1E735
:10226000BC424A4B3FF400AF9C68626822F0030214
:102270005AE759F80839994540F0828010F0030F69
:1022800000F1FF30F5D17B6823EA04037B60640032
:102290009C423FF6BDAE002C3FF4BAAE1C42404615
:1022A0007FF435AE64001C4200F10400FAD02EE643
:1022B000B3F5AA7F18D8E80B00F1780E4FEA4E0369
:1022C0007730CFE54FF48051EBE60121D8F80430A8
:1022D000921001FA02F21A43C8F80420614677E727
:1022E0000123CBF8043025E740F25452934220D822
:1022F000A80C00F17D0E4FEA4E037C30B2E510329F
:10230000A4E6542A26D81A0B02F16F0149006E3256
:1023100048E7BC68626822F0030205E7CAF30B00D5
:1023200000287FF4A8AE4244BB6842F001025A6024
:10233000ECE6FE234FF07F0E7E2093E501224FF066
:102340000009C1E604F10801304600F0A9F8D9F807
:102350000010DBE6B2F5AA7F05D8DA0B02F17801AE
:10236000490077321EE740F254518A4205D89A0C50
:1023700002F17D0149007C3214E7FE217E2211E743
:102380007B6884E7E808431C5B00F8E5148CFF1FBA
:10239000704700BF704700BF38B5074C00230546A3
:1023A00008462360FEF754FA431C00D038BD23686A
:1023B000002BFBD02B6038BDB891FF1F024B13B12F
:1023C000024800F005B8704700000000DD2300005F
:1023D000002301461A46184600F04AB938B5074DA1
:1023E000074C2C1BA41005D0013C55F8043D984720
:1023F000002CF9D1BDE8384000F0F0B90000000031
:1024000000000000F8B5234F0C460646FFF7C0FF5A
:10241000BB685D6825F00305291B01F6EF7121F407
:102420007F6121F00F01A1F58054B4F5805F07DBD7
:1024300000213046FFF7B0FFBB682B44984204D020
:102440003046FFF7A7FF0020F8BD61423046FFF796
:10245000A3FF01300DD0104BBA6819682D1B45F051
:1024600001053046091B55601960FFF793FF0120F5
:10247000F8BD00213046FFF78FFFBA68831A0F2B93
:10248000DEDD064C0449246843F00103001B536061
:102490000860D5E7148CFF1F7C91FF1F2090FF1F61
:1024A000002945D02DE9F0410D468046FFF770FF29
:1024B00055F8047C6A4927F00103A5F10804E218E5
:1024C0008E685068B24220F0030062D0FE07506070
:1024D0000BD455F8087CE41B01F1080EA56875457E
:1024E0003B446FD0E768EF60BD6015186D68ED077D
:1024F00042D543F001026260E350B3F5007F18D289
:10250000DB085A1C4D6851F83270A76001209B10FF
:1025100000FA03F301EBC2001D430838E0604D6090
:1025200041F83240FC604046BDE8F041FFF732BF61
:1025300070475A0A042A53D89A0902F139077F00D2
:1025400002F1380501EB870051F82720444908388B
:1025500090424DD0516821F003018B4202D2926823
:102560009042F7D1D068E060A2608460D4604046B9
:10257000BDE8F041FFF70EBF95683A4FBD420344F6
:102580003FD0D068E86043F0010285606260E350AC
:10259000B3E7FF07034407D455F8082CA41A1344E3
:1025A000A068E268C26090602F4A126843F00100A0
:1025B000934260608C60B6D32C4B40461968FFF79D
:1025C00021FFB0E711184968C90744D49168D2685F
:1025D000CA60034443F0010091606060E350A2E7E9
:1025E000142A17D802F15C077F0002F15B05A9E706
:1025F000AA104B68012505FA02F213434B6002460C
:10260000B1E743F001024C610C61E560A5606260D6
:10261000E35088E7542A06D81A0B02F16F077F00AF
:1026200002F16E058EE7B2F5AA7F06D8DA0B02F149
:1026300078077F0002F1770584E740F25450824228
:1026400006D89A0C02F17D077F0002F17C0579E73C
:10265000FE277E2576E743F001026260E35062E7E1
:10266000148CFF1F1C8CFF1F1C90FF1F7891FF1FF5
:102670002DE9F047254C2568D5F84841064688469F
:1026800092469946C4B360681F2817DC431C76B194
:1026900004EB80050122C5F888A0D4F88811824097
:1026A0001143022EC4F88811C5F808911ED00230DB
:1026B000636044F820800020BDE8F087144B03B32A
:1026C0004FF4C870FFF7A4FB0446D0B1D5F84831E9
:1026D000002780E88800C5F8484138460123C4F83F
:1026E0008871C4F88C71002EE1D0D1E7D4F88C1138
:1026F0000A43C4F88C21DAE705F5A674C5F8484109
:10270000C1E74FF0FF30BDE8F08700BFC4270000ED
:10271000111E0000050E08090D0C06070F0400131A
:102720000393050E08090D0C06070F04FFFFC5856E
:10273000848687C4FFFF001303931A9217FFFFFFDD
:102740000D0AFFFF0000000000000000ED1B00006C
:10275000E51B0000E11B0000DD1B0000D91B000091
:10276000D51B0000D11B0000CD1B00000015191562
:10277000000100004087FF1F12000000000200005F
:102780006C87FF1F4300000000030000C887FF1F85
:1027900000000000010309045487FF1F000000002F
:1027A00002030904B087FF1F0000000003030904AF
:1027B000CC87FF1F000000000000000000000000A8
:1027C00000000000E887FF1FF8B500BFF8BC08BC98
:0C27D0009E467047BD2300003504000049
:0427DC00F8B500BF8D
:1027E0000A040000BC91FF1FFFFFFFFF4C27000001
:1027F00000000000E80300000000000001000000ED
:102800001201100102000040C0168304750201028B
:102810000301000018035400650065006E0073009A
:1028200079006400750069006E006F0009024300C2
:10283000020100C032090400000102020100052467
:1028400000100105240101010424020605240600EC
:10285000010705820310004009040100020A00007C
:102860000007050302400000070584024000000045
:10287000160355005300420020005300650072000B
:10288000690061006C000000040309040C030000EF
:102890000000000000000000000000000000000038
:1028A000000001000000000000000000D48AFF1FAB
:1028B0003C8BFF1FA48BFF1F0000000000000000E6
:1028C0000000000000000000000000000000000008
:1028D00000000000000000000000000000000000F8
:1028E00000000000000000000000000000000000E8
:1028F00000000000000000000000000000000000D8
:1029000000000000000000000000000000000000C7
:1029100000000000000000000000000000000000B7
:1029200000000000000000000000000000000000A7
:102930000000000000000000000000000000000097
:102940000000000000000000000000000000000087
:1029500001000000000000000E33CDAB34126DE624
:10296000ECDE05000B00000000000000000000008D
:102970000000000000000000000000000000000057
:102980000000000000000000000000000000000047
:102990000000000000000000000000000000000037
:1029A0000000000000000000000000000000000027
:102CD000E887FF1F0000000000000000148CFF1FA9
:102CE000148CFF1F1C8CFF1F1C8CFF1F248CFF1FCC
:102CF000248CFF1F2C8CFF1F2C8CFF1F348CFF1F7C
:102D0000348CFF1F3C8CFF1F3C8CFF1F448CFF1F2B
:102D1000448CFF1F4C8CFF1F4C8CFF1F548CFF1FDB
:102D2000548CFF1F5C8CFF1F5C8CFF1F648CFF1F8B
:102D3000648CFF1F6C8CFF1F6C8CFF1F748CFF1F3B
:102D4000748CFF1F7C8CFF1F7C8CFF1F848CFF1FEB
:102D5000848CFF1F8C8CFF1F8C8CFF1F948CFF1F9B
:102D6000948CFF1F9C8CFF1F9C8CFF1FA48CFF1F4B
:102D7000A48CFF1FAC8CFF1FAC8CFF1FB48CFF1FFB
:102D8000B48CFF1FBC8CFF1FBC8CFF1FC48CFF1FAB
:102D9000C48CFF1FCC8CFF1FCC8CFF1FD48CFF1F5B
:102DA000D48CFF1FDC8CFF1FDC8CFF1FE48CFF1F0B
:102DB000E48CFF1FEC8CFF1FEC8CFF1FF48CFF1FBB
:102DC000F48CFF1FFC8CFF1FFC8CFF1F048DFF1F6A
:102DD000048DFF1F0C8DFF1F0C8DFF1F148DFF1F17
:102DE000148DFF1F1C8DFF1F1C8DFF1F248DFF1FC7
:102DF000248DFF1F2C8DFF1F2C8DFF1F348DFF1F77
:102E0000348DFF1F3C8DFF1F3C8DFF1F448DFF1F26
:102E1000448DFF1F4C8DFF1F4C8DFF1F548DFF1FD6
:102E2000548DFF1F5C8DFF1F5C8DFF1F648DFF1F86
:102E3000648DFF1F6C8DFF1F6C8DFF1F748DFF1F36
:102E4000748DFF1F7C8DFF1F7C8DFF1F848DFF1FE6
:102E5000848DFF1F8C8DFF1F8C8DFF1F948DFF1F96
:102E6000948DFF1F9C8DFF1F9C8DFF1FA48DFF1F46
:102E7000A48DFF1FAC8DFF1FAC8DFF1FB48DFF1FF6
:102E8000B48DFF1FBC8DFF1FBC8DFF1FC48DFF1FA6
:102E9000C48DFF1FCC8DFF1FCC8DFF1FD48DFF1F56
:102EA000D48DFF1FDC8DFF1FDC8DFF1FE48DFF1F06
:102EB000E48DFF1FEC8DFF1FEC8DFF1FF48DFF1FB6
:102EC000F48DFF1FFC8DFF1FFC8DFF1F048EFF1F65
:102ED000048EFF1F0C8EFF1F0C8EFF1F148EFF1F12
:102EE000148EFF1F1C8EFF1F1C8EFF1F248EFF1FC2
:102EF000248EFF1F2C8EFF1F2C8EFF1F348EFF1F72
:102F0000348EFF1F3C8EFF1F3C8EFF1F448EFF1F21
:102F1000448EFF1F4C8EFF1F4C8EFF1F548EFF1FD1
:102F2000548EFF1F5C8EFF1F5C8EFF1F648EFF1F81
:102F3000648EFF1F6C8EFF1F6C8EFF1F748EFF1F31
:102F4000748EFF1F7C8EFF1F7C8EFF1F848EFF1FE1
:102F5000848EFF1F8C8EFF1F8C8EFF1F948EFF1F91
:102F6000948EFF1F9C8EFF1F9C8EFF1FA48EFF1F41
:102F7000A48EFF1FAC8EFF1FAC8EFF1FB48EFF1FF1
:102F8000B48EFF1FBC8EFF1FBC8EFF1FC48EFF1FA1
:102F9000C48EFF1FCC8EFF1FCC8EFF1FD48EFF1F51
:102FA000D48EFF1FDC8EFF1FDC8EFF1FE48EFF1F01
:102FB000E48EFF1FEC8EFF1FEC8EFF1FF48EFF1FB1
:102FC000F48EFF1FFC8EFF1FFC8EFF1F048FFF1F60
:102FD000048FFF1F0C8FFF1F0C8FFF1F148FFF1F0D
:102FE000148FFF1F1C8FFF1F1C8FFF1F248FFF1FBD
:102FF000248FFF1F2C8FFF1F2C8FFF1F348FFF1F6D
:10300000348FFF1F3C8FFF1F3C8FFF1F448FFF1F1C
:10301000448FFF1F4C8FFF1F4C8FFF1F548FFF1FCC
:10302000548FFF1F5C8FFF1F5C8FFF1F648FFF1F7C
:10303000648FFF1F6C8FFF1F6C8FFF1F748FFF1F2C
:10304000748FFF1F7C8FFF1F7C8FFF1F848FFF1FDC
:10305000848FFF1F8C8FFF1F8C8FFF1F948FFF1F8C
:10306000948FFF1F9C8FFF1F9C8FFF1FA48FFF1F3C
:10307000A48FFF1FAC8FFF1FAC8FFF1FB48FFF1FEC
:10308000B48FFF1FBC8FFF1FBC8FFF1FC48FFF1F9C
:10309000C48FFF1FCC8FFF1FCC8FFF1FD48FFF1F4C
:1030A000D48FFF1FDC8FFF1FDC8FFF1FE48FFF1FFC
:1030B000E48FFF1FEC8FFF1FEC8FFF1FF48FFF1FAC
:1030C000F48FFF1FFC8FFF1FFC8FFF1F0490FF1F5B
:1030D0000490FF1F0C90FF1F0C90FF1F00000200C8
:0430E000FFFFFFFFF0
:00000001FF
